{
  "_format": "hh-sol-artifact-1",
  "contractName": "MyNFT",
  "sourceName": "contracts/minter.sol",
  "abi": [
    {
      "inputs": [
        {
          "internalType": "address",
          "name": "initialOwner",
          "type": "address"
        },
        {
          "internalType": "string",
          "name": "_URI",
          "type": "string"
        }
      ],
      "stateMutability": "nonpayable",
      "type": "constructor"
    },
    {
      "inputs": [
        {
          "internalType": "address",
          "name": "sender",
          "type": "address"
        },
        {
          "internalType": "uint256",
          "name": "tokenId",
          "type": "uint256"
        },
        {
          "internalType": "address",
          "name": "owner",
          "type": "address"
        }
      ],
      "name": "ERC721IncorrectOwner",
      "type": "error"
    },
    {
      "inputs": [
        {
          "internalType": "address",
          "name": "operator",
          "type": "address"
        },
        {
          "internalType": "uint256",
          "name": "tokenId",
          "type": "uint256"
        }
      ],
      "name": "ERC721InsufficientApproval",
      "type": "error"
    },
    {
      "inputs": [
        {
          "internalType": "address",
          "name": "approver",
          "type": "address"
        }
      ],
      "name": "ERC721InvalidApprover",
      "type": "error"
    },
    {
      "inputs": [
        {
          "internalType": "address",
          "name": "operator",
          "type": "address"
        }
      ],
      "name": "ERC721InvalidOperator",
      "type": "error"
    },
    {
      "inputs": [
        {
          "internalType": "address",
          "name": "owner",
          "type": "address"
        }
      ],
      "name": "ERC721InvalidOwner",
      "type": "error"
    },
    {
      "inputs": [
        {
          "internalType": "address",
          "name": "receiver",
          "type": "address"
        }
      ],
      "name": "ERC721InvalidReceiver",
      "type": "error"
    },
    {
      "inputs": [
        {
          "internalType": "address",
          "name": "sender",
          "type": "address"
        }
      ],
      "name": "ERC721InvalidSender",
      "type": "error"
    },
    {
      "inputs": [
        {
          "internalType": "uint256",
          "name": "tokenId",
          "type": "uint256"
        }
      ],
      "name": "ERC721NonexistentToken",
      "type": "error"
    },
    {
      "inputs": [
        {
          "internalType": "address",
          "name": "owner",
          "type": "address"
        }
      ],
      "name": "OwnableInvalidOwner",
      "type": "error"
    },
    {
      "inputs": [
        {
          "internalType": "address",
          "name": "account",
          "type": "address"
        }
      ],
      "name": "OwnableUnauthorizedAccount",
      "type": "error"
    },
    {
      "anonymous": false,
      "inputs": [
        {
          "indexed": true,
          "internalType": "address",
          "name": "owner",
          "type": "address"
        },
        {
          "indexed": true,
          "internalType": "address",
          "name": "approved",
          "type": "address"
        },
        {
          "indexed": true,
          "internalType": "uint256",
          "name": "tokenId",
          "type": "uint256"
        }
      ],
      "name": "Approval",
      "type": "event"
    },
    {
      "anonymous": false,
      "inputs": [
        {
          "indexed": true,
          "internalType": "address",
          "name": "owner",
          "type": "address"
        },
        {
          "indexed": true,
          "internalType": "address",
          "name": "operator",
          "type": "address"
        },
        {
          "indexed": false,
          "internalType": "bool",
          "name": "approved",
          "type": "bool"
        }
      ],
      "name": "ApprovalForAll",
      "type": "event"
    },
    {
      "anonymous": false,
      "inputs": [
        {
          "indexed": true,
          "internalType": "address",
          "name": "previousOwner",
          "type": "address"
        },
        {
          "indexed": true,
          "internalType": "address",
          "name": "newOwner",
          "type": "address"
        }
      ],
      "name": "OwnershipTransferred",
      "type": "event"
    },
    {
      "anonymous": false,
      "inputs": [
        {
          "indexed": true,
          "internalType": "address",
          "name": "from",
          "type": "address"
        },
        {
          "indexed": true,
          "internalType": "address",
          "name": "to",
          "type": "address"
        },
        {
          "indexed": true,
          "internalType": "uint256",
          "name": "tokenId",
          "type": "uint256"
        }
      ],
      "name": "Transfer",
      "type": "event"
    },
    {
      "inputs": [
        {
          "internalType": "address",
          "name": "to",
          "type": "address"
        },
        {
          "internalType": "uint256",
          "name": "tokenId",
          "type": "uint256"
        }
      ],
      "name": "approve",
      "outputs": [],
      "stateMutability": "nonpayable",
      "type": "function"
    },
    {
      "inputs": [
        {
          "internalType": "address",
          "name": "owner",
          "type": "address"
        }
      ],
      "name": "balanceOf",
      "outputs": [
        {
          "internalType": "uint256",
          "name": "",
          "type": "uint256"
        }
      ],
      "stateMutability": "view",
      "type": "function"
    },
    {
      "inputs": [
        {
          "internalType": "uint256",
          "name": "tokenId",
          "type": "uint256"
        }
      ],
      "name": "getApproved",
      "outputs": [
        {
          "internalType": "address",
          "name": "",
          "type": "address"
        }
      ],
      "stateMutability": "view",
      "type": "function"
    },
    {
      "inputs": [
        {
          "internalType": "address",
          "name": "owner",
          "type": "address"
        },
        {
          "internalType": "address",
          "name": "operator",
          "type": "address"
        }
      ],
      "name": "isApprovedForAll",
      "outputs": [
        {
          "internalType": "bool",
          "name": "",
          "type": "bool"
        }
      ],
      "stateMutability": "view",
      "type": "function"
    },
    {
      "inputs": [],
      "name": "mintNFT",
      "outputs": [],
      "stateMutability": "payable",
      "type": "function"
    },
    {
      "inputs": [],
      "name": "name",
      "outputs": [
        {
          "internalType": "string",
          "name": "",
          "type": "string"
        }
      ],
      "stateMutability": "view",
      "type": "function"
    },
    {
      "inputs": [],
      "name": "owner",
      "outputs": [
        {
          "internalType": "address",
          "name": "",
          "type": "address"
        }
      ],
      "stateMutability": "view",
      "type": "function"
    },
    {
      "inputs": [
        {
          "internalType": "uint256",
          "name": "tokenId",
          "type": "uint256"
        }
      ],
      "name": "ownerOf",
      "outputs": [
        {
          "internalType": "address",
          "name": "",
          "type": "address"
        }
      ],
      "stateMutability": "view",
      "type": "function"
    },
    {
      "inputs": [],
      "name": "renounceOwnership",
      "outputs": [],
      "stateMutability": "nonpayable",
      "type": "function"
    },
    {
      "inputs": [
        {
          "internalType": "address",
          "name": "from",
          "type": "address"
        },
        {
          "internalType": "address",
          "name": "to",
          "type": "address"
        },
        {
          "internalType": "uint256",
          "name": "tokenId",
          "type": "uint256"
        }
      ],
      "name": "safeTransferFrom",
      "outputs": [],
      "stateMutability": "nonpayable",
      "type": "function"
    },
    {
      "inputs": [
        {
          "internalType": "address",
          "name": "from",
          "type": "address"
        },
        {
          "internalType": "address",
          "name": "to",
          "type": "address"
        },
        {
          "internalType": "uint256",
          "name": "tokenId",
          "type": "uint256"
        },
        {
          "internalType": "bytes",
          "name": "data",
          "type": "bytes"
        }
      ],
      "name": "safeTransferFrom",
      "outputs": [],
      "stateMutability": "nonpayable",
      "type": "function"
    },
    {
      "inputs": [
        {
          "internalType": "address",
          "name": "operator",
          "type": "address"
        },
        {
          "internalType": "bool",
          "name": "approved",
          "type": "bool"
        }
      ],
      "name": "setApprovalForAll",
      "outputs": [],
      "stateMutability": "nonpayable",
      "type": "function"
    },
    {
      "inputs": [
        {
          "internalType": "bytes4",
          "name": "interfaceId",
          "type": "bytes4"
        }
      ],
      "name": "supportsInterface",
      "outputs": [
        {
          "internalType": "bool",
          "name": "",
          "type": "bool"
        }
      ],
      "stateMutability": "view",
      "type": "function"
    },
    {
      "inputs": [],
      "name": "symbol",
      "outputs": [
        {
          "internalType": "string",
          "name": "",
          "type": "string"
        }
      ],
      "stateMutability": "view",
      "type": "function"
    },
    {
      "inputs": [],
      "name": "tokenSupply",
      "outputs": [
        {
          "internalType": "uint256",
          "name": "",
          "type": "uint256"
        }
      ],
      "stateMutability": "view",
      "type": "function"
    },
    {
      "inputs": [
        {
          "internalType": "uint256",
          "name": "tokenId",
          "type": "uint256"
        }
      ],
      "name": "tokenURI",
      "outputs": [
        {
          "internalType": "string",
          "name": "",
          "type": "string"
        }
      ],
      "stateMutability": "view",
      "type": "function"
    },
    {
      "inputs": [
        {
          "internalType": "address",
          "name": "from",
          "type": "address"
        },
        {
          "internalType": "address",
          "name": "to",
          "type": "address"
        },
        {
          "internalType": "uint256",
          "name": "tokenId",
          "type": "uint256"
        }
      ],
      "name": "transferFrom",
      "outputs": [],
      "stateMutability": "nonpayable",
      "type": "function"
    },
    {
      "inputs": [
        {
          "internalType": "address",
          "name": "newOwner",
          "type": "address"
        }
      ],
      "name": "transferOwnership",
      "outputs": [],
      "stateMutability": "nonpayable",
      "type": "function"
    },
    {
      "inputs": [],
      "name": "viewBalance",
      "outputs": [
        {
          "internalType": "uint256",
          "name": "",
          "type": "uint256"
        }
      ],
      "stateMutability": "view",
      "type": "function"
    },
    {
      "inputs": [],
      "name": "withdraw",
      "outputs": [],
      "stateMutability": "nonpayable",
      "type": "function"
    }
  ],
  "bytecode": "0x608060405260006007553480156200001657600080fd5b50604051620029363803806200293683398181016040528101906200003c91906200042e565b816040518060400160405280600581526020017f4d794e46540000000000000000000000000000000000000000000000000000008152506040518060400160405280600381526020017f4e465400000000000000000000000000000000000000000000000000000000008152508160009081620000ba9190620006df565b508060019081620000cc9190620006df565b505050600073ffffffffffffffffffffffffffffffffffffffff168173ffffffffffffffffffffffffffffffffffffffff1603620001445760006040517f1e4fbdf70000000000000000000000000000000000000000000000000000000081526004016200013b9190620007d7565b60405180910390fd5b62000155816200017060201b60201c565b508060089081620001679190620006df565b505050620007f4565b6000600660009054906101000a900473ffffffffffffffffffffffffffffffffffffffff16905081600660006101000a81548173ffffffffffffffffffffffffffffffffffffffff021916908373ffffffffffffffffffffffffffffffffffffffff1602179055508173ffffffffffffffffffffffffffffffffffffffff168173ffffffffffffffffffffffffffffffffffffffff167f8be0079c531659141344cd1fd0a4f28419497f9722a3daafe3b4186f6b6457e060405160405180910390a35050565b6000604051905090565b600080fd5b600080fd5b600073ffffffffffffffffffffffffffffffffffffffff82169050919050565b600062000277826200024a565b9050919050565b62000289816200026a565b81146200029557600080fd5b50565b600081519050620002a9816200027e565b92915050565b600080fd5b600080fd5b6000601f19601f8301169050919050565b7f4e487b7100000000000000000000000000000000000000000000000000000000600052604160045260246000fd5b6200030482620002b9565b810181811067ffffffffffffffff82111715620003265762000325620002ca565b5b80604052505050565b60006200033b62000236565b9050620003498282620002f9565b919050565b600067ffffffffffffffff8211156200036c576200036b620002ca565b5b6200037782620002b9565b9050602081019050919050565b60005b83811015620003a457808201518184015260208101905062000387565b60008484015250505050565b6000620003c7620003c1846200034e565b6200032f565b905082815260208101848484011115620003e657620003e5620002b4565b5b620003f384828562000384565b509392505050565b600082601f830112620004135762000412620002af565b5b815162000425848260208601620003b0565b91505092915050565b6000806040838503121562000448576200044762000240565b5b6000620004588582860162000298565b925050602083015167ffffffffffffffff8111156200047c576200047b62000245565b5b6200048a85828601620003fb565b9150509250929050565b600081519050919050565b7f4e487b7100000000000000000000000000000000000000000000000000000000600052602260045260246000fd5b60006002820490506001821680620004e757607f821691505b602082108103620004fd57620004fc6200049f565b5b50919050565b60008190508160005260206000209050919050565b60006020601f8301049050919050565b600082821b905092915050565b600060088302620005677fffffffffffffffffffffffffffffffffffffffffffffffffffffffffffffffff8262000528565b62000573868362000528565b95508019841693508086168417925050509392505050565b6000819050919050565b6000819050919050565b6000620005c0620005ba620005b4846200058b565b62000595565b6200058b565b9050919050565b6000819050919050565b620005dc836200059f565b620005f4620005eb82620005c7565b84845462000535565b825550505050565b600090565b6200060b620005fc565b62000618818484620005d1565b505050565b5b8181101562000640576200063460008262000601565b6001810190506200061e565b5050565b601f8211156200068f57620006598162000503565b620006648462000518565b8101602085101562000674578190505b6200068c620006838562000518565b8301826200061d565b50505b505050565b600082821c905092915050565b6000620006b46000198460080262000694565b1980831691505092915050565b6000620006cf8383620006a1565b9150826002028217905092915050565b620006ea8262000494565b67ffffffffffffffff811115620007065762000705620002ca565b5b620007128254620004ce565b6200071f82828562000644565b600060209050601f83116001811462000757576000841562000742578287015190505b6200074e8582620006c1565b865550620007be565b601f198416620007678662000503565b60005b8281101562000791578489015182556001820191506020850194506020810190506200076a565b86831015620007b15784890151620007ad601f891682620006a1565b8355505b6001600288020188555050505b505050505050565b620007d1816200026a565b82525050565b6000602082019050620007ee6000830184620007c6565b92915050565b61213280620008046000396000f3fe60806040526004361061011f5760003560e01c806370a08231116100a0578063a22cb46511610064578063a22cb465146103a2578063b88d4fde146103cb578063c87b56dd146103f4578063e985e9c514610431578063f2fde38b1461046e5761011f565b806370a08231146102cd578063715018a61461030a5780637824407f146103215780638da5cb5b1461034c57806395d89b41146103775761011f565b806323b872dd116100e757806323b872dd146101fc5780633ccfd60b146102255780633ff1e05b1461023c57806342842e0e146102675780636352211e146102905761011f565b806301ffc9a71461012457806306fdde0314610161578063081812fc1461018c578063095ea7b3146101c957806314f710fe146101f2575b600080fd5b34801561013057600080fd5b5061014b600480360381019061014691906118a1565b610497565b60405161015891906118e9565b60405180910390f35b34801561016d57600080fd5b50610176610579565b6040516101839190611994565b60405180910390f35b34801561019857600080fd5b506101b360048036038101906101ae91906119ec565b61060b565b6040516101c09190611a5a565b60405180910390f35b3480156101d557600080fd5b506101f060048036038101906101eb9190611aa1565b610627565b005b6101fa61063d565b005b34801561020857600080fd5b50610223600480360381019061021e9190611ae1565b610663565b005b34801561023157600080fd5b5061023a610765565b005b34801561024857600080fd5b506102516107b6565b60405161025e9190611b43565b60405180910390f35b34801561027357600080fd5b5061028e60048036038101906102899190611ae1565b6107be565b005b34801561029c57600080fd5b506102b760048036038101906102b291906119ec565b6107de565b6040516102c49190611a5a565b60405180910390f35b3480156102d957600080fd5b506102f460048036038101906102ef9190611b5e565b6107f0565b6040516103019190611b43565b60405180910390f35b34801561031657600080fd5b5061031f6108aa565b005b34801561032d57600080fd5b506103366108be565b6040516103439190611b43565b60405180910390f35b34801561035857600080fd5b506103616108c4565b60405161036e9190611a5a565b60405180910390f35b34801561038357600080fd5b5061038c6108ee565b6040516103999190611994565b60405180910390f35b3480156103ae57600080fd5b506103c960048036038101906103c49190611bb7565b610980565b005b3480156103d757600080fd5b506103f260048036038101906103ed9190611d2c565b610996565b005b34801561040057600080fd5b5061041b600480360381019061041691906119ec565b6109b3565b6040516104289190611994565b60405180910390f35b34801561043d57600080fd5b5061045860048036038101906104539190611daf565b610a33565b60405161046591906118e9565b60405180910390f35b34801561047a57600080fd5b5061049560048036038101906104909190611b5e565b610ac7565b005b60007f80ac58cd000000000000000000000000000000000000000000000000000000007bffffffffffffffffffffffffffffffffffffffffffffffffffffffff1916827bffffffffffffffffffffffffffffffffffffffffffffffffffffffff1916148061056257507f5b5e139f000000000000000000000000000000000000000000000000000000007bffffffffffffffffffffffffffffffffffffffffffffffffffffffff1916827bffffffffffffffffffffffffffffffffffffffffffffffffffffffff1916145b80610572575061057182610b4d565b5b9050919050565b60606000805461058890611e1e565b80601f01602080910402602001604051908101604052809291908181526020018280546105b490611e1e565b80156106015780601f106105d657610100808354040283529160200191610601565b820191906000526020600020905b8154815290600101906020018083116105e457829003601f168201915b5050505050905090565b600061061682610bb7565b5061062082610c3f565b9050919050565b6106398282610634610c7c565b610c84565b5050565b6007600081548092919061065090611e7e565b919050555061066133600754610c96565b565b600073ffffffffffffffffffffffffffffffffffffffff168273ffffffffffffffffffffffffffffffffffffffff16036106d55760006040517f64a0ae920000000000000000000000000000000000000000000000000000000081526004016106cc9190611a5a565b60405180910390fd5b60006106e983836106e4610c7c565b610d8f565b90508373ffffffffffffffffffffffffffffffffffffffff168173ffffffffffffffffffffffffffffffffffffffff161461075f578382826040517f64283d7b00000000000000000000000000000000000000000000000000000000815260040161075693929190611ec6565b60405180910390fd5b50505050565b61076d610fa9565b3373ffffffffffffffffffffffffffffffffffffffff166108fc479081150290604051600060405180830381858888f193505050501580156107b3573d6000803e3d6000fd5b50565b600047905090565b6107d983838360405180602001604052806000815250610996565b505050565b60006107e982610bb7565b9050919050565b60008073ffffffffffffffffffffffffffffffffffffffff168273ffffffffffffffffffffffffffffffffffffffff16036108635760006040517f89c62b6400000000000000000000000000000000000000000000000000000000815260040161085a9190611a5a565b60405180910390fd5b600360008373ffffffffffffffffffffffffffffffffffffffff1673ffffffffffffffffffffffffffffffffffffffff168152602001908152602001600020549050919050565b6108b2610fa9565b6108bc6000611030565b565b60075481565b6000600660009054906101000a900473ffffffffffffffffffffffffffffffffffffffff16905090565b6060600180546108fd90611e1e565b80601f016020809104026020016040519081016040528092919081815260200182805461092990611e1e565b80156109765780601f1061094b57610100808354040283529160200191610976565b820191906000526020600020905b81548152906001019060200180831161095957829003601f168201915b5050505050905090565b61099261098b610c7c565b83836110f6565b5050565b6109a1848484610663565b6109ad84848484611265565b50505050565b60606109be82610bb7565b5060006109c961141c565b905060008151116109e95760405180602001604052806000815250610a2b565b80836040516020016109fb9190611b43565b604051602081830303815290604052604051602001610a1b929190611fcc565b6040516020818303038152906040525b915050919050565b6000600560008473ffffffffffffffffffffffffffffffffffffffff1673ffffffffffffffffffffffffffffffffffffffff16815260200190815260200160002060008373ffffffffffffffffffffffffffffffffffffffff1673ffffffffffffffffffffffffffffffffffffffff16815260200190815260200160002060009054906101000a900460ff16905092915050565b610acf610fa9565b600073ffffffffffffffffffffffffffffffffffffffff168173ffffffffffffffffffffffffffffffffffffffff1603610b415760006040517f1e4fbdf7000000000000000000000000000000000000000000000000000000008152600401610b389190611a5a565b60405180910390fd5b610b4a81611030565b50565b60007f01ffc9a7000000000000000000000000000000000000000000000000000000007bffffffffffffffffffffffffffffffffffffffffffffffffffffffff1916827bffffffffffffffffffffffffffffffffffffffffffffffffffffffff1916149050919050565b600080610bc3836114ae565b9050600073ffffffffffffffffffffffffffffffffffffffff168173ffffffffffffffffffffffffffffffffffffffff1603610c3657826040517f7e273289000000000000000000000000000000000000000000000000000000008152600401610c2d9190611b43565b60405180910390fd5b80915050919050565b60006004600083815260200190815260200160002060009054906101000a900473ffffffffffffffffffffffffffffffffffffffff169050919050565b600033905090565b610c9183838360016114eb565b505050565b600073ffffffffffffffffffffffffffffffffffffffff168273ffffffffffffffffffffffffffffffffffffffff1603610d085760006040517f64a0ae92000000000000000000000000000000000000000000000000000000008152600401610cff9190611a5a565b60405180910390fd5b6000610d1683836000610d8f565b9050600073ffffffffffffffffffffffffffffffffffffffff168173ffffffffffffffffffffffffffffffffffffffff1614610d8a5760006040517f73c6ac6e000000000000000000000000000000000000000000000000000000008152600401610d819190611a5a565b60405180910390fd5b505050565b600080610d9b846114ae565b9050600073ffffffffffffffffffffffffffffffffffffffff168373ffffffffffffffffffffffffffffffffffffffff1614610ddd57610ddc8184866116b0565b5b600073ffffffffffffffffffffffffffffffffffffffff168173ffffffffffffffffffffffffffffffffffffffff1614610e6e57610e1f6000856000806114eb565b6001600360008373ffffffffffffffffffffffffffffffffffffffff1673ffffffffffffffffffffffffffffffffffffffff168152602001908152602001600020600082825403925050819055505b600073ffffffffffffffffffffffffffffffffffffffff168573ffffffffffffffffffffffffffffffffffffffff1614610ef1576001600360008773ffffffffffffffffffffffffffffffffffffffff1673ffffffffffffffffffffffffffffffffffffffff168152602001908152602001600020600082825401925050819055505b846002600086815260200190815260200160002060006101000a81548173ffffffffffffffffffffffffffffffffffffffff021916908373ffffffffffffffffffffffffffffffffffffffff160217905550838573ffffffffffffffffffffffffffffffffffffffff168273ffffffffffffffffffffffffffffffffffffffff167fddf252ad1be2c89b69c2b068fc378daa952ba7f163c4a11628f55a4df523b3ef60405160405180910390a4809150509392505050565b610fb1610c7c565b73ffffffffffffffffffffffffffffffffffffffff16610fcf6108c4565b73ffffffffffffffffffffffffffffffffffffffff161461102e57610ff2610c7c565b6040517f118cdaa70000000000000000000000000000000000000000000000000000000081526004016110259190611a5a565b60405180910390fd5b565b6000600660009054906101000a900473ffffffffffffffffffffffffffffffffffffffff16905081600660006101000a81548173ffffffffffffffffffffffffffffffffffffffff021916908373ffffffffffffffffffffffffffffffffffffffff1602179055508173ffffffffffffffffffffffffffffffffffffffff168173ffffffffffffffffffffffffffffffffffffffff167f8be0079c531659141344cd1fd0a4f28419497f9722a3daafe3b4186f6b6457e060405160405180910390a35050565b600073ffffffffffffffffffffffffffffffffffffffff168273ffffffffffffffffffffffffffffffffffffffff160361116757816040517f5b08ba1800000000000000000000000000000000000000000000000000000000815260040161115e9190611a5a565b60405180910390fd5b80600560008573ffffffffffffffffffffffffffffffffffffffff1673ffffffffffffffffffffffffffffffffffffffff16815260200190815260200160002060008473ffffffffffffffffffffffffffffffffffffffff1673ffffffffffffffffffffffffffffffffffffffff16815260200190815260200160002060006101000a81548160ff0219169083151502179055508173ffffffffffffffffffffffffffffffffffffffff168373ffffffffffffffffffffffffffffffffffffffff167f17307eab39ab6107e8899845ad3d59bd9653f200f220920489ca2b5937696c318360405161125891906118e9565b60405180910390a3505050565b60008373ffffffffffffffffffffffffffffffffffffffff163b1115611416578273ffffffffffffffffffffffffffffffffffffffff1663150b7a026112a9610c7c565b8685856040518563ffffffff1660e01b81526004016112cb9493929190612045565b6020604051808303816000875af192505050801561130757506040513d601f19601f8201168201806040525081019061130491906120a6565b60015b61138b573d8060008114611337576040519150601f19603f3d011682016040523d82523d6000602084013e61133c565b606091505b50600081510361138357836040517f64a0ae9200000000000000000000000000000000000000000000000000000000815260040161137a9190611a5a565b60405180910390fd5b805181602001fd5b63150b7a0260e01b7bffffffffffffffffffffffffffffffffffffffffffffffffffffffff1916817bffffffffffffffffffffffffffffffffffffffffffffffffffffffff19161461141457836040517f64a0ae9200000000000000000000000000000000000000000000000000000000815260040161140b9190611a5a565b60405180910390fd5b505b50505050565b60606008805461142b90611e1e565b80601f016020809104026020016040519081016040528092919081815260200182805461145790611e1e565b80156114a45780601f10611479576101008083540402835291602001916114a4565b820191906000526020600020905b81548152906001019060200180831161148757829003601f168201915b5050505050905090565b60006002600083815260200190815260200160002060009054906101000a900473ffffffffffffffffffffffffffffffffffffffff169050919050565b80806115245750600073ffffffffffffffffffffffffffffffffffffffff168273ffffffffffffffffffffffffffffffffffffffff1614155b1561165857600061153484610bb7565b9050600073ffffffffffffffffffffffffffffffffffffffff168373ffffffffffffffffffffffffffffffffffffffff161415801561159f57508273ffffffffffffffffffffffffffffffffffffffff168173ffffffffffffffffffffffffffffffffffffffff1614155b80156115b257506115b08184610a33565b155b156115f457826040517fa9fbf51f0000000000000000000000000000000000000000000000000000000081526004016115eb9190611a5a565b60405180910390fd5b811561165657838573ffffffffffffffffffffffffffffffffffffffff168273ffffffffffffffffffffffffffffffffffffffff167f8c5be1e5ebec7d5bd14f71427d1e84f3dd0314c0f7b2291e5b200ac8c7c3b92560405160405180910390a45b505b836004600085815260200190815260200160002060006101000a81548173ffffffffffffffffffffffffffffffffffffffff021916908373ffffffffffffffffffffffffffffffffffffffff16021790555050505050565b6116bb838383611774565b61176f57600073ffffffffffffffffffffffffffffffffffffffff168373ffffffffffffffffffffffffffffffffffffffff160361173057806040517f7e2732890000000000000000000000000000000000000000000000000000000081526004016117279190611b43565b60405180910390fd5b81816040517f177e802f0000000000000000000000000000000000000000000000000000000081526004016117669291906120d3565b60405180910390fd5b505050565b60008073ffffffffffffffffffffffffffffffffffffffff168373ffffffffffffffffffffffffffffffffffffffff161415801561182c57508273ffffffffffffffffffffffffffffffffffffffff168473ffffffffffffffffffffffffffffffffffffffff1614806117ed57506117ec8484610a33565b5b8061182b57508273ffffffffffffffffffffffffffffffffffffffff1661181383610c3f565b73ffffffffffffffffffffffffffffffffffffffff16145b5b90509392505050565b6000604051905090565b600080fd5b600080fd5b60007fffffffff0000000000000000000000000000000000000000000000000000000082169050919050565b61187e81611849565b811461188957600080fd5b50565b60008135905061189b81611875565b92915050565b6000602082840312156118b7576118b661183f565b5b60006118c58482850161188c565b91505092915050565b60008115159050919050565b6118e3816118ce565b82525050565b60006020820190506118fe60008301846118da565b92915050565b600081519050919050565b600082825260208201905092915050565b60005b8381101561193e578082015181840152602081019050611923565b60008484015250505050565b6000601f19601f8301169050919050565b600061196682611904565b611970818561190f565b9350611980818560208601611920565b6119898161194a565b840191505092915050565b600060208201905081810360008301526119ae818461195b565b905092915050565b6000819050919050565b6119c9816119b6565b81146119d457600080fd5b50565b6000813590506119e6816119c0565b92915050565b600060208284031215611a0257611a0161183f565b5b6000611a10848285016119d7565b91505092915050565b600073ffffffffffffffffffffffffffffffffffffffff82169050919050565b6000611a4482611a19565b9050919050565b611a5481611a39565b82525050565b6000602082019050611a6f6000830184611a4b565b92915050565b611a7e81611a39565b8114611a8957600080fd5b50565b600081359050611a9b81611a75565b92915050565b60008060408385031215611ab857611ab761183f565b5b6000611ac685828601611a8c565b9250506020611ad7858286016119d7565b9150509250929050565b600080600060608486031215611afa57611af961183f565b5b6000611b0886828701611a8c565b9350506020611b1986828701611a8c565b9250506040611b2a868287016119d7565b9150509250925092565b611b3d816119b6565b82525050565b6000602082019050611b586000830184611b34565b92915050565b600060208284031215611b7457611b7361183f565b5b6000611b8284828501611a8c565b91505092915050565b611b94816118ce565b8114611b9f57600080fd5b50565b600081359050611bb181611b8b565b92915050565b60008060408385031215611bce57611bcd61183f565b5b6000611bdc85828601611a8c565b9250506020611bed85828601611ba2565b9150509250929050565b600080fd5b600080fd5b7f4e487b7100000000000000000000000000000000000000000000000000000000600052604160045260246000fd5b611c398261194a565b810181811067ffffffffffffffff82111715611c5857611c57611c01565b5b80604052505050565b6000611c6b611835565b9050611c778282611c30565b919050565b600067ffffffffffffffff821115611c9757611c96611c01565b5b611ca08261194a565b9050602081019050919050565b82818337600083830152505050565b6000611ccf611cca84611c7c565b611c61565b905082815260208101848484011115611ceb57611cea611bfc565b5b611cf6848285611cad565b509392505050565b600082601f830112611d1357611d12611bf7565b5b8135611d23848260208601611cbc565b91505092915050565b60008060008060808587031215611d4657611d4561183f565b5b6000611d5487828801611a8c565b9450506020611d6587828801611a8c565b9350506040611d76878288016119d7565b925050606085013567ffffffffffffffff811115611d9757611d96611844565b5b611da387828801611cfe565b91505092959194509250565b60008060408385031215611dc657611dc561183f565b5b6000611dd485828601611a8c565b9250506020611de585828601611a8c565b9150509250929050565b7f4e487b7100000000000000000000000000000000000000000000000000000000600052602260045260246000fd5b60006002820490506001821680611e3657607f821691505b602082108103611e4957611e48611def565b5b50919050565b7f4e487b7100000000000000000000000000000000000000000000000000000000600052601160045260246000fd5b6000611e89826119b6565b91507fffffffffffffffffffffffffffffffffffffffffffffffffffffffffffffffff8203611ebb57611eba611e4f565b5b600182019050919050565b6000606082019050611edb6000830186611a4b565b611ee86020830185611b34565b611ef56040830184611a4b565b949350505050565b600081905092915050565b6000611f1382611904565b611f1d8185611efd565b9350611f2d818560208601611920565b80840191505092915050565b600081519050919050565b600081905092915050565b6000611f5a82611f39565b611f648185611f44565b9350611f74818560208601611920565b80840191505092915050565b7f2e6a736f6e000000000000000000000000000000000000000000000000000000600082015250565b6000611fb6600583611efd565b9150611fc182611f80565b600582019050919050565b6000611fd88285611f08565b9150611fe48284611f4f565b9150611fef82611fa9565b91508190509392505050565b600082825260208201905092915050565b600061201782611f39565b6120218185611ffb565b9350612031818560208601611920565b61203a8161194a565b840191505092915050565b600060808201905061205a6000830187611a4b565b6120676020830186611a4b565b6120746040830185611b34565b8181036060830152612086818461200c565b905095945050505050565b6000815190506120a081611875565b92915050565b6000602082840312156120bc576120bb61183f565b5b60006120ca84828501612091565b91505092915050565b60006040820190506120e86000830185611a4b565b6120f56020830184611b34565b939250505056fea264697066735822122050e0309136025a30675f586cfe653fddf166d185074e7016e70ee618fc9d4b5064736f6c63430008140033",
  "linkReferences": {},
  "deployedLinkReferences": {}
}