{
  "_format": "hh-sol-artifact-1",
  "contractName": "MyNFTFactory",
  "sourceName": "contracts/minterFactory.sol",
  "abi": [
    {
      "inputs": [
        {
          "internalType": "string",
          "name": "_URI",
          "type": "string"
        },
        {
          "internalType": "uint256",
          "name": "numTokens",
          "type": "uint256"
        }
      ],
      "name": "createMyNFT",
      "outputs": [],
      "stateMutability": "payable",
      "type": "function"
    },
    {
      "inputs": [
        {
          "internalType": "address",
          "name": "",
          "type": "address"
        }
      ],
      "name": "deployedContracts",
      "outputs": [
        {
          "internalType": "contract MyNFT",
          "name": "",
          "type": "address"
        }
      ],
      "stateMutability": "view",
      "type": "function"
    }
  ],
  "bytecode": "0x608060405234801561000f575f80fd5b50612ed28061001d5f395ff3fe6080604052600436106200002b575f3560e01c8063523de2e2146200002f578063c70242ad146200004f575b5f80fd5b6200004d6004803603810190620000479190620003a9565b62000092565b005b3480156200005b575f80fd5b506200007a60048036038101906200007491906200046e565b620001cb565b60405162000089919062000505565b60405180910390f35b5f3383604051620000a390620001fa565b620000b0929190620005b5565b604051809103905ff080158015620000ca573d5f803e3d5ffd5b509050805f803373ffffffffffffffffffffffffffffffffffffffff1673ffffffffffffffffffffffffffffffffffffffff1681526020019081526020015f205f6101000a81548173ffffffffffffffffffffffffffffffffffffffff021916908373ffffffffffffffffffffffffffffffffffffffff1602179055505f5b82811015620001c5578173ffffffffffffffffffffffffffffffffffffffff166314f710fe6040518163ffffffff1660e01b81526004015f604051808303815f87803b15801562000198575f80fd5b505af1158015620001ab573d5f803e3d5ffd5b505050508080620001bc9062000614565b91505062000149565b50505050565b5f602052805f5260405f205f915054906101000a900473ffffffffffffffffffffffffffffffffffffffff1681565b61283c806200066183390190565b5f604051905090565b5f80fd5b5f80fd5b5f80fd5b5f80fd5b5f601f19601f8301169050919050565b7f4e487b71000000000000000000000000000000000000000000000000000000005f52604160045260245ffd5b620002698262000221565b810181811067ffffffffffffffff821117156200028b576200028a62000231565b5b80604052505050565b5f6200029f62000208565b9050620002ad82826200025e565b919050565b5f67ffffffffffffffff821115620002cf57620002ce62000231565b5b620002da8262000221565b9050602081019050919050565b828183375f83830152505050565b5f6200030b6200030584620002b2565b62000294565b9050828152602081018484840111156200032a57620003296200021d565b5b62000337848285620002e7565b509392505050565b5f82601f83011262000356576200035562000219565b5b813562000368848260208601620002f5565b91505092915050565b5f819050919050565b620003858162000371565b811462000390575f80fd5b50565b5f81359050620003a3816200037a565b92915050565b5f8060408385031215620003c257620003c162000211565b5b5f83013567ffffffffffffffff811115620003e257620003e162000215565b5b620003f0858286016200033f565b9250506020620004038582860162000393565b9150509250929050565b5f73ffffffffffffffffffffffffffffffffffffffff82169050919050565b5f62000438826200040d565b9050919050565b6200044a816200042c565b811462000455575f80fd5b50565b5f8135905062000468816200043f565b92915050565b5f6020828403121562000486576200048562000211565b5b5f620004958482850162000458565b91505092915050565b5f819050919050565b5f620004c7620004c1620004bb846200040d565b6200049e565b6200040d565b9050919050565b5f620004da82620004a7565b9050919050565b5f620004ed82620004ce565b9050919050565b620004ff81620004e1565b82525050565b5f6020820190506200051a5f830184620004f4565b92915050565b6200052b816200042c565b82525050565b5f81519050919050565b5f82825260208201905092915050565b5f5b838110156200056a5780820151818401526020810190506200054d565b5f8484015250505050565b5f620005818262000531565b6200058d81856200053b565b93506200059f8185602086016200054b565b620005aa8162000221565b840191505092915050565b5f604082019050620005ca5f83018562000520565b8181036020830152620005de818462000575565b90509392505050565b7f4e487b71000000000000000000000000000000000000000000000000000000005f52601160045260245ffd5b5f620006208262000371565b91507fffffffffffffffffffffffffffffffffffffffffffffffffffffffffffffffff8203620006555762000654620005e7565b5b60018201905091905056fe60806040525f60075534801562000014575f80fd5b506040516200283c3803806200283c83398181016040528101906200003a919062000414565b816040518060400160405280600581526020017f4d794e46540000000000000000000000000000000000000000000000000000008152506040518060400160405280600381526020017f4e46540000000000000000000000000000000000000000000000000000000000815250815f9081620000b79190620006af565b508060019081620000c99190620006af565b5050505f73ffffffffffffffffffffffffffffffffffffffff168173ffffffffffffffffffffffffffffffffffffffff16036200013f575f6040517f1e4fbdf7000000000000000000000000000000000000000000000000000000008152600401620001369190620007a4565b60405180910390fd5b62000150816200016b60201b60201c565b508060089081620001629190620006af565b505050620007bf565b5f60065f9054906101000a900473ffffffffffffffffffffffffffffffffffffffff1690508160065f6101000a81548173ffffffffffffffffffffffffffffffffffffffff021916908373ffffffffffffffffffffffffffffffffffffffff1602179055508173ffffffffffffffffffffffffffffffffffffffff168173ffffffffffffffffffffffffffffffffffffffff167f8be0079c531659141344cd1fd0a4f28419497f9722a3daafe3b4186f6b6457e060405160405180910390a35050565b5f604051905090565b5f80fd5b5f80fd5b5f73ffffffffffffffffffffffffffffffffffffffff82169050919050565b5f6200026a826200023f565b9050919050565b6200027c816200025e565b811462000287575f80fd5b50565b5f815190506200029a8162000271565b92915050565b5f80fd5b5f80fd5b5f601f19601f8301169050919050565b7f4e487b71000000000000000000000000000000000000000000000000000000005f52604160045260245ffd5b620002f082620002a8565b810181811067ffffffffffffffff82111715620003125762000311620002b8565b5b80604052505050565b5f620003266200022e565b9050620003348282620002e5565b919050565b5f67ffffffffffffffff821115620003565762000355620002b8565b5b6200036182620002a8565b9050602081019050919050565b5f5b838110156200038d57808201518184015260208101905062000370565b5f8484015250505050565b5f620003ae620003a88462000339565b6200031b565b905082815260208101848484011115620003cd57620003cc620002a4565b5b620003da8482856200036e565b509392505050565b5f82601f830112620003f957620003f8620002a0565b5b81516200040b84826020860162000398565b91505092915050565b5f80604083850312156200042d576200042c62000237565b5b5f6200043c858286016200028a565b925050602083015167ffffffffffffffff81111562000460576200045f6200023b565b5b6200046e85828601620003e2565b9150509250929050565b5f81519050919050565b7f4e487b71000000000000000000000000000000000000000000000000000000005f52602260045260245ffd5b5f6002820490506001821680620004c757607f821691505b602082108103620004dd57620004dc62000482565b5b50919050565b5f819050815f5260205f209050919050565b5f6020601f8301049050919050565b5f82821b905092915050565b5f60088302620005417fffffffffffffffffffffffffffffffffffffffffffffffffffffffffffffffff8262000504565b6200054d868362000504565b95508019841693508086168417925050509392505050565b5f819050919050565b5f819050919050565b5f62000597620005916200058b8462000565565b6200056e565b62000565565b9050919050565b5f819050919050565b620005b28362000577565b620005ca620005c1826200059e565b84845462000510565b825550505050565b5f90565b620005e0620005d2565b620005ed818484620005a7565b505050565b5b818110156200061457620006085f82620005d6565b600181019050620005f3565b5050565b601f82111562000663576200062d81620004e3565b6200063884620004f5565b8101602085101562000648578190505b620006606200065785620004f5565b830182620005f2565b50505b505050565b5f82821c905092915050565b5f620006855f198460080262000668565b1980831691505092915050565b5f6200069f838362000674565b9150826002028217905092915050565b620006ba8262000478565b67ffffffffffffffff811115620006d657620006d5620002b8565b5b620006e28254620004af565b620006ef82828562000618565b5f60209050601f83116001811462000725575f841562000710578287015190505b6200071c858262000692565b8655506200078b565b601f1984166200073586620004e3565b5f5b828110156200075e5784890151825560018201915060208501945060208101905062000737565b868310156200077e57848901516200077a601f89168262000674565b8355505b6001600288020188555050505b505050505050565b6200079e816200025e565b82525050565b5f602082019050620007b95f83018462000793565b92915050565b61206f80620007cd5f395ff3fe60806040526004361061011e575f3560e01c806370a082311161009f578063a22cb46511610063578063a22cb46514610392578063b88d4fde146103ba578063c87b56dd146103e2578063e985e9c51461041e578063f2fde38b1461045a5761011e565b806370a08231146102c2578063715018a6146102fe5780637824407f146103145780638da5cb5b1461033e57806395d89b41146103685761011e565b806323b872dd116100e657806323b872dd146101f65780633ccfd60b1461021e5780633ff1e05b1461023457806342842e0e1461025e5780636352211e146102865761011e565b806301ffc9a71461012257806306fdde031461015e578063081812fc14610188578063095ea7b3146101c457806314f710fe146101ec575b5f80fd5b34801561012d575f80fd5b506101486004803603810190610143919061182a565b610482565b604051610155919061186f565b60405180910390f35b348015610169575f80fd5b50610172610563565b60405161017f9190611912565b60405180910390f35b348015610193575f80fd5b506101ae60048036038101906101a99190611965565b6105f2565b6040516101bb91906119cf565b60405180910390f35b3480156101cf575f80fd5b506101ea60048036038101906101e59190611a12565b61060d565b005b6101f4610623565b005b348015610201575f80fd5b5061021c60048036038101906102179190611a50565b610648565b005b348015610229575f80fd5b50610232610747565b005b34801561023f575f80fd5b50610248610795565b6040516102559190611aaf565b60405180910390f35b348015610269575f80fd5b50610284600480360381019061027f9190611a50565b61079c565b005b348015610291575f80fd5b506102ac60048036038101906102a79190611965565b6107bb565b6040516102b991906119cf565b60405180910390f35b3480156102cd575f80fd5b506102e860048036038101906102e39190611ac8565b6107cc565b6040516102f59190611aaf565b60405180910390f35b348015610309575f80fd5b50610312610882565b005b34801561031f575f80fd5b50610328610895565b6040516103359190611aaf565b60405180910390f35b348015610349575f80fd5b5061035261089b565b60405161035f91906119cf565b60405180910390f35b348015610373575f80fd5b5061037c6108c3565b6040516103899190611912565b60405180910390f35b34801561039d575f80fd5b506103b860048036038101906103b39190611b1d565b610953565b005b3480156103c5575f80fd5b506103e060048036038101906103db9190611c87565b610969565b005b3480156103ed575f80fd5b5061040860048036038101906104039190611965565b610986565b6040516104159190611912565b60405180910390f35b348015610429575f80fd5b50610444600480360381019061043f9190611d07565b610a03565b604051610451919061186f565b60405180910390f35b348015610465575f80fd5b50610480600480360381019061047b9190611ac8565b610a91565b005b5f7f80ac58cd000000000000000000000000000000000000000000000000000000007bffffffffffffffffffffffffffffffffffffffffffffffffffffffff1916827bffffffffffffffffffffffffffffffffffffffffffffffffffffffff1916148061054c57507f5b5e139f000000000000000000000000000000000000000000000000000000007bffffffffffffffffffffffffffffffffffffffffffffffffffffffff1916827bffffffffffffffffffffffffffffffffffffffffffffffffffffffff1916145b8061055c575061055b82610b15565b5b9050919050565b60605f805461057190611d72565b80601f016020809104026020016040519081016040528092919081815260200182805461059d90611d72565b80156105e85780601f106105bf576101008083540402835291602001916105e8565b820191905f5260205f20905b8154815290600101906020018083116105cb57829003601f168201915b5050505050905090565b5f6105fc82610b7e565b5061060682610c04565b9050919050565b61061f828261061a610c3d565b610c44565b5050565b60075f81548092919061063590611dcf565b919050555061064633600754610c56565b565b5f73ffffffffffffffffffffffffffffffffffffffff168273ffffffffffffffffffffffffffffffffffffffff16036106b8575f6040517f64a0ae920000000000000000000000000000000000000000000000000000000081526004016106af91906119cf565b60405180910390fd5b5f6106cb83836106c6610c3d565b610d49565b90508373ffffffffffffffffffffffffffffffffffffffff168173ffffffffffffffffffffffffffffffffffffffff1614610741578382826040517f64283d7b00000000000000000000000000000000000000000000000000000000815260040161073893929190611e16565b60405180910390fd5b50505050565b61074f610f54565b3373ffffffffffffffffffffffffffffffffffffffff166108fc4790811502906040515f60405180830381858888f19350505050158015610792573d5f803e3d5ffd5b50565b5f47905090565b6107b683838360405180602001604052805f815250610969565b505050565b5f6107c582610b7e565b9050919050565b5f8073ffffffffffffffffffffffffffffffffffffffff168273ffffffffffffffffffffffffffffffffffffffff160361083d575f6040517f89c62b6400000000000000000000000000000000000000000000000000000000815260040161083491906119cf565b60405180910390fd5b60035f8373ffffffffffffffffffffffffffffffffffffffff1673ffffffffffffffffffffffffffffffffffffffff1681526020019081526020015f20549050919050565b61088a610f54565b6108935f610fdb565b565b60075481565b5f60065f9054906101000a900473ffffffffffffffffffffffffffffffffffffffff16905090565b6060600180546108d290611d72565b80601f01602080910402602001604051908101604052809291908181526020018280546108fe90611d72565b80156109495780601f1061092057610100808354040283529160200191610949565b820191905f5260205f20905b81548152906001019060200180831161092c57829003601f168201915b5050505050905090565b61096561095e610c3d565b838361109e565b5050565b610974848484610648565b61098084848484611207565b50505050565b606061099182610b7e565b505f61099b6113b9565b90505f8151116109b95760405180602001604052805f8152506109fb565b80836040516020016109cb9190611aaf565b6040516020818303038152906040526040516020016109eb929190611f13565b6040516020818303038152906040525b915050919050565b5f60055f8473ffffffffffffffffffffffffffffffffffffffff1673ffffffffffffffffffffffffffffffffffffffff1681526020019081526020015f205f8373ffffffffffffffffffffffffffffffffffffffff1673ffffffffffffffffffffffffffffffffffffffff1681526020019081526020015f205f9054906101000a900460ff16905092915050565b610a99610f54565b5f73ffffffffffffffffffffffffffffffffffffffff168173ffffffffffffffffffffffffffffffffffffffff1603610b09575f6040517f1e4fbdf7000000000000000000000000000000000000000000000000000000008152600401610b0091906119cf565b60405180910390fd5b610b1281610fdb565b50565b5f7f01ffc9a7000000000000000000000000000000000000000000000000000000007bffffffffffffffffffffffffffffffffffffffffffffffffffffffff1916827bffffffffffffffffffffffffffffffffffffffffffffffffffffffff1916149050919050565b5f80610b8983611449565b90505f73ffffffffffffffffffffffffffffffffffffffff168173ffffffffffffffffffffffffffffffffffffffff1603610bfb57826040517f7e273289000000000000000000000000000000000000000000000000000000008152600401610bf29190611aaf565b60405180910390fd5b80915050919050565b5f60045f8381526020019081526020015f205f9054906101000a900473ffffffffffffffffffffffffffffffffffffffff169050919050565b5f33905090565b610c518383836001611482565b505050565b5f73ffffffffffffffffffffffffffffffffffffffff168273ffffffffffffffffffffffffffffffffffffffff1603610cc6575f6040517f64a0ae92000000000000000000000000000000000000000000000000000000008152600401610cbd91906119cf565b60405180910390fd5b5f610cd283835f610d49565b90505f73ffffffffffffffffffffffffffffffffffffffff168173ffffffffffffffffffffffffffffffffffffffff1614610d44575f6040517f73c6ac6e000000000000000000000000000000000000000000000000000000008152600401610d3b91906119cf565b60405180910390fd5b505050565b5f80610d5484611449565b90505f73ffffffffffffffffffffffffffffffffffffffff168373ffffffffffffffffffffffffffffffffffffffff1614610d9557610d94818486611641565b5b5f73ffffffffffffffffffffffffffffffffffffffff168173ffffffffffffffffffffffffffffffffffffffff1614610e2057610dd45f855f80611482565b600160035f8373ffffffffffffffffffffffffffffffffffffffff1673ffffffffffffffffffffffffffffffffffffffff1681526020019081526020015f205f82825403925050819055505b5f73ffffffffffffffffffffffffffffffffffffffff168573ffffffffffffffffffffffffffffffffffffffff1614610e9f57600160035f8773ffffffffffffffffffffffffffffffffffffffff1673ffffffffffffffffffffffffffffffffffffffff1681526020019081526020015f205f82825401925050819055505b8460025f8681526020019081526020015f205f6101000a81548173ffffffffffffffffffffffffffffffffffffffff021916908373ffffffffffffffffffffffffffffffffffffffff160217905550838573ffffffffffffffffffffffffffffffffffffffff168273ffffffffffffffffffffffffffffffffffffffff167fddf252ad1be2c89b69c2b068fc378daa952ba7f163c4a11628f55a4df523b3ef60405160405180910390a4809150509392505050565b610f5c610c3d565b73ffffffffffffffffffffffffffffffffffffffff16610f7a61089b565b73ffffffffffffffffffffffffffffffffffffffff1614610fd957610f9d610c3d565b6040517f118cdaa7000000000000000000000000000000000000000000000000000000008152600401610fd091906119cf565b60405180910390fd5b565b5f60065f9054906101000a900473ffffffffffffffffffffffffffffffffffffffff1690508160065f6101000a81548173ffffffffffffffffffffffffffffffffffffffff021916908373ffffffffffffffffffffffffffffffffffffffff1602179055508173ffffffffffffffffffffffffffffffffffffffff168173ffffffffffffffffffffffffffffffffffffffff167f8be0079c531659141344cd1fd0a4f28419497f9722a3daafe3b4186f6b6457e060405160405180910390a35050565b5f73ffffffffffffffffffffffffffffffffffffffff168273ffffffffffffffffffffffffffffffffffffffff160361110e57816040517f5b08ba1800000000000000000000000000000000000000000000000000000000815260040161110591906119cf565b60405180910390fd5b8060055f8573ffffffffffffffffffffffffffffffffffffffff1673ffffffffffffffffffffffffffffffffffffffff1681526020019081526020015f205f8473ffffffffffffffffffffffffffffffffffffffff1673ffffffffffffffffffffffffffffffffffffffff1681526020019081526020015f205f6101000a81548160ff0219169083151502179055508173ffffffffffffffffffffffffffffffffffffffff168373ffffffffffffffffffffffffffffffffffffffff167f17307eab39ab6107e8899845ad3d59bd9653f200f220920489ca2b5937696c31836040516111fa919061186f565b60405180910390a3505050565b5f8373ffffffffffffffffffffffffffffffffffffffff163b11156113b3578273ffffffffffffffffffffffffffffffffffffffff1663150b7a0261124a610c3d565b8685856040518563ffffffff1660e01b815260040161126c9493929190611f89565b6020604051808303815f875af19250505080156112a757506040513d601f19601f820116820180604052508101906112a49190611fe7565b60015b611328573d805f81146112d5576040519150601f19603f3d011682016040523d82523d5f602084013e6112da565b606091505b505f81510361132057836040517f64a0ae9200000000000000000000000000000000000000000000000000000000815260040161131791906119cf565b60405180910390fd5b805181602001fd5b63150b7a0260e01b7bffffffffffffffffffffffffffffffffffffffffffffffffffffffff1916817bffffffffffffffffffffffffffffffffffffffffffffffffffffffff1916146113b157836040517f64a0ae920000000000000000000000000000000000000000000000000000000081526004016113a891906119cf565b60405180910390fd5b505b50505050565b6060600880546113c890611d72565b80601f01602080910402602001604051908101604052809291908181526020018280546113f490611d72565b801561143f5780601f106114165761010080835404028352916020019161143f565b820191905f5260205f20905b81548152906001019060200180831161142257829003601f168201915b5050505050905090565b5f60025f8381526020019081526020015f205f9054906101000a900473ffffffffffffffffffffffffffffffffffffffff169050919050565b80806114ba57505f73ffffffffffffffffffffffffffffffffffffffff168273ffffffffffffffffffffffffffffffffffffffff1614155b156115ec575f6114c984610b7e565b90505f73ffffffffffffffffffffffffffffffffffffffff168373ffffffffffffffffffffffffffffffffffffffff161415801561153357508273ffffffffffffffffffffffffffffffffffffffff168173ffffffffffffffffffffffffffffffffffffffff1614155b801561154657506115448184610a03565b155b1561158857826040517fa9fbf51f00000000000000000000000000000000000000000000000000000000815260040161157f91906119cf565b60405180910390fd5b81156115ea57838573ffffffffffffffffffffffffffffffffffffffff168273ffffffffffffffffffffffffffffffffffffffff167f8c5be1e5ebec7d5bd14f71427d1e84f3dd0314c0f7b2291e5b200ac8c7c3b92560405160405180910390a45b505b8360045f8581526020019081526020015f205f6101000a81548173ffffffffffffffffffffffffffffffffffffffff021916908373ffffffffffffffffffffffffffffffffffffffff16021790555050505050565b61164c838383611704565b6116ff575f73ffffffffffffffffffffffffffffffffffffffff168373ffffffffffffffffffffffffffffffffffffffff16036116c057806040517f7e2732890000000000000000000000000000000000000000000000000000000081526004016116b79190611aaf565b60405180910390fd5b81816040517f177e802f0000000000000000000000000000000000000000000000000000000081526004016116f6929190612012565b60405180910390fd5b505050565b5f8073ffffffffffffffffffffffffffffffffffffffff168373ffffffffffffffffffffffffffffffffffffffff16141580156117bb57508273ffffffffffffffffffffffffffffffffffffffff168473ffffffffffffffffffffffffffffffffffffffff16148061177c575061177b8484610a03565b5b806117ba57508273ffffffffffffffffffffffffffffffffffffffff166117a283610c04565b73ffffffffffffffffffffffffffffffffffffffff16145b5b90509392505050565b5f604051905090565b5f80fd5b5f80fd5b5f7fffffffff0000000000000000000000000000000000000000000000000000000082169050919050565b611809816117d5565b8114611813575f80fd5b50565b5f8135905061182481611800565b92915050565b5f6020828403121561183f5761183e6117cd565b5b5f61184c84828501611816565b91505092915050565b5f8115159050919050565b61186981611855565b82525050565b5f6020820190506118825f830184611860565b92915050565b5f81519050919050565b5f82825260208201905092915050565b5f5b838110156118bf5780820151818401526020810190506118a4565b5f8484015250505050565b5f601f19601f8301169050919050565b5f6118e482611888565b6118ee8185611892565b93506118fe8185602086016118a2565b611907816118ca565b840191505092915050565b5f6020820190508181035f83015261192a81846118da565b905092915050565b5f819050919050565b61194481611932565b811461194e575f80fd5b50565b5f8135905061195f8161193b565b92915050565b5f6020828403121561197a576119796117cd565b5b5f61198784828501611951565b91505092915050565b5f73ffffffffffffffffffffffffffffffffffffffff82169050919050565b5f6119b982611990565b9050919050565b6119c9816119af565b82525050565b5f6020820190506119e25f8301846119c0565b92915050565b6119f1816119af565b81146119fb575f80fd5b50565b5f81359050611a0c816119e8565b92915050565b5f8060408385031215611a2857611a276117cd565b5b5f611a35858286016119fe565b9250506020611a4685828601611951565b9150509250929050565b5f805f60608486031215611a6757611a666117cd565b5b5f611a74868287016119fe565b9350506020611a85868287016119fe565b9250506040611a9686828701611951565b9150509250925092565b611aa981611932565b82525050565b5f602082019050611ac25f830184611aa0565b92915050565b5f60208284031215611add57611adc6117cd565b5b5f611aea848285016119fe565b91505092915050565b611afc81611855565b8114611b06575f80fd5b50565b5f81359050611b1781611af3565b92915050565b5f8060408385031215611b3357611b326117cd565b5b5f611b40858286016119fe565b9250506020611b5185828601611b09565b9150509250929050565b5f80fd5b5f80fd5b7f4e487b71000000000000000000000000000000000000000000000000000000005f52604160045260245ffd5b611b99826118ca565b810181811067ffffffffffffffff82111715611bb857611bb7611b63565b5b80604052505050565b5f611bca6117c4565b9050611bd68282611b90565b919050565b5f67ffffffffffffffff821115611bf557611bf4611b63565b5b611bfe826118ca565b9050602081019050919050565b828183375f83830152505050565b5f611c2b611c2684611bdb565b611bc1565b905082815260208101848484011115611c4757611c46611b5f565b5b611c52848285611c0b565b509392505050565b5f82601f830112611c6e57611c6d611b5b565b5b8135611c7e848260208601611c19565b91505092915050565b5f805f8060808587031215611c9f57611c9e6117cd565b5b5f611cac878288016119fe565b9450506020611cbd878288016119fe565b9350506040611cce87828801611951565b925050606085013567ffffffffffffffff811115611cef57611cee6117d1565b5b611cfb87828801611c5a565b91505092959194509250565b5f8060408385031215611d1d57611d1c6117cd565b5b5f611d2a858286016119fe565b9250506020611d3b858286016119fe565b9150509250929050565b7f4e487b71000000000000000000000000000000000000000000000000000000005f52602260045260245ffd5b5f6002820490506001821680611d8957607f821691505b602082108103611d9c57611d9b611d45565b5b50919050565b7f4e487b71000000000000000000000000000000000000000000000000000000005f52601160045260245ffd5b5f611dd982611932565b91507fffffffffffffffffffffffffffffffffffffffffffffffffffffffffffffffff8203611e0b57611e0a611da2565b5b600182019050919050565b5f606082019050611e295f8301866119c0565b611e366020830185611aa0565b611e4360408301846119c0565b949350505050565b5f81905092915050565b5f611e5f82611888565b611e698185611e4b565b9350611e798185602086016118a2565b80840191505092915050565b5f81519050919050565b5f81905092915050565b5f611ea382611e85565b611ead8185611e8f565b9350611ebd8185602086016118a2565b80840191505092915050565b7f2e6a736f6e0000000000000000000000000000000000000000000000000000005f82015250565b5f611efd600583611e4b565b9150611f0882611ec9565b600582019050919050565b5f611f1e8285611e55565b9150611f2a8284611e99565b9150611f3582611ef1565b91508190509392505050565b5f82825260208201905092915050565b5f611f5b82611e85565b611f658185611f41565b9350611f758185602086016118a2565b611f7e816118ca565b840191505092915050565b5f608082019050611f9c5f8301876119c0565b611fa960208301866119c0565b611fb66040830185611aa0565b8181036060830152611fc88184611f51565b905095945050505050565b5f81519050611fe181611800565b92915050565b5f60208284031215611ffc57611ffb6117cd565b5b5f61200984828501611fd3565b91505092915050565b5f6040820190506120255f8301856119c0565b6120326020830184611aa0565b939250505056fea26469706673582212200fe931640d490ef49832b19af62677d7e7cd42c30217f87c4b8f0b510d619ace64736f6c63430008140033a2646970667358221220b58f7efe46e768490e0c53eed108634d89dd4fbda2a78b7acea43a1d73d0995a64736f6c63430008140033",
  "linkReferences": {},
  "deployedLinkReferences": {}
}